{
  "contractName": "ClimateActionProjects",
  "abi": [
    {
      "inputs": [
        {
          "internalType": "address",
          "name": "_CO2DataFeedAddress",
          "type": "address"
        }
      ],
      "stateMutability": "nonpayable",
      "type": "constructor"
    },
    {
      "anonymous": false,
      "inputs": [
        {
          "indexed": false,
          "internalType": "uint256",
          "name": "projectId",
          "type": "uint256"
        }
      ],
      "name": "ProjectApproved",
      "type": "event"
    },
    {
      "anonymous": false,
      "inputs": [
        {
          "indexed": false,
          "internalType": "uint256",
          "name": "projectId",
          "type": "uint256"
        },
        {
          "indexed": false,
          "internalType": "uint256",
          "name": "amount",
          "type": "uint256"
        }
      ],
      "name": "ProjectFunded",
      "type": "event"
    },
    {
      "anonymous": false,
      "inputs": [
        {
          "indexed": false,
          "internalType": "uint256",
          "name": "projectId",
          "type": "uint256"
        },
        {
          "indexed": false,
          "internalType": "address",
          "name": "owner",
          "type": "address"
        }
      ],
      "name": "ProjectSubmitted",
      "type": "event"
    },
    {
      "inputs": [],
      "name": "admin",
      "outputs": [
        {
          "internalType": "address",
          "name": "",
          "type": "address"
        }
      ],
      "stateMutability": "view",
      "type": "function",
      "constant": true
    },
    {
      "inputs": [],
      "name": "nextProjectId",
      "outputs": [
        {
          "internalType": "uint256",
          "name": "",
          "type": "uint256"
        }
      ],
      "stateMutability": "view",
      "type": "function",
      "constant": true
    },
    {
      "inputs": [
        {
          "internalType": "uint256",
          "name": "",
          "type": "uint256"
        }
      ],
      "name": "projects",
      "outputs": [
        {
          "internalType": "uint256",
          "name": "id",
          "type": "uint256"
        },
        {
          "internalType": "address payable",
          "name": "owner",
          "type": "address"
        },
        {
          "internalType": "string",
          "name": "name",
          "type": "string"
        },
        {
          "internalType": "string",
          "name": "description",
          "type": "string"
        },
        {
          "internalType": "uint256",
          "name": "fundingGoal",
          "type": "uint256"
        },
        {
          "internalType": "uint256",
          "name": "currentFunding",
          "type": "uint256"
        },
        {
          "internalType": "uint256",
          "name": "milestoneTarget",
          "type": "uint256"
        },
        {
          "internalType": "bool",
          "name": "approved",
          "type": "bool"
        },
        {
          "internalType": "bool",
          "name": "milestoneReached",
          "type": "bool"
        },
        {
          "internalType": "uint256",
          "name": "CO2ReductionTarget",
          "type": "uint256"
        }
      ],
      "stateMutability": "view",
      "type": "function",
      "constant": true
    },
    {
      "inputs": [
        {
          "internalType": "string",
          "name": "name",
          "type": "string"
        },
        {
          "internalType": "string",
          "name": "description",
          "type": "string"
        },
        {
          "internalType": "uint256",
          "name": "fundingGoal",
          "type": "uint256"
        },
        {
          "internalType": "uint256",
          "name": "CO2ReductionTarget",
          "type": "uint256"
        },
        {
          "internalType": "uint256",
          "name": "milestoneTarget",
          "type": "uint256"
        }
      ],
      "name": "submitProject",
      "outputs": [],
      "stateMutability": "nonpayable",
      "type": "function"
    },
    {
      "inputs": [
        {
          "internalType": "uint256",
          "name": "projectId",
          "type": "uint256"
        }
      ],
      "name": "approveProject",
      "outputs": [],
      "stateMutability": "nonpayable",
      "type": "function"
    },
    {
      "inputs": [
        {
          "internalType": "uint256",
          "name": "projectId",
          "type": "uint256"
        }
      ],
      "name": "fundProject",
      "outputs": [],
      "stateMutability": "payable",
      "type": "function",
      "payable": true
    },
    {
      "inputs": [],
      "name": "getProjectsCount",
      "outputs": [
        {
          "internalType": "uint256",
          "name": "",
          "type": "uint256"
        }
      ],
      "stateMutability": "view",
      "type": "function",
      "constant": true
    },
    {
      "inputs": [],
      "name": "getCurrentCO2Level",
      "outputs": [
        {
          "internalType": "int256",
          "name": "",
          "type": "int256"
        }
      ],
      "stateMutability": "view",
      "type": "function",
      "constant": true
    }
  ],
  "bytecode": "0x608060405234801561001057600080fd5b50604051610c10380380610c1083398101604081905261002f91610062565b60008054336001600160a01b031991821617909155600380549091166001600160a01b0392909216919091179055610092565b60006020828403121561007457600080fd5b81516001600160a01b038116811461008b57600080fd5b9392505050565b610b6f806100a16000396000f3fe60806040526004361061007b5760003560e01c8063e935b7b11161004e578063e935b7b11461010c578063f851a44014610122578063fa12ff2f1461015a578063fc69d8361461017a57600080fd5b8063107046bd146100805780636c563abe146100bf578063e09dfb95146100d4578063e4a8f18b146100f7575b600080fd5b34801561008c57600080fd5b506100a061009b36600461072a565b61019a565b6040516100b69a99989796959493929190610789565b60405180910390f35b6100d26100cd36600461072a565b61031d565b005b3480156100e057600080fd5b506100e961040b565b6040519081526020016100b6565b34801561010357600080fd5b506001546100e9565b34801561011857600080fd5b506100e960025481565b34801561012e57600080fd5b50600054610142906001600160a01b031681565b6040516001600160a01b0390911681526020016100b6565b34801561016657600080fd5b506100d26101753660046108a4565b610490565b34801561018657600080fd5b506100d261019536600461072a565b610658565b600181815481106101aa57600080fd5b60009182526020909120600990910201805460018201546002830180549294506001600160a01b0390911692916101e090610923565b80601f016020809104026020016040519081016040528092919081815260200182805461020c90610923565b80156102595780601f1061022e57610100808354040283529160200191610259565b820191906000526020600020905b81548152906001019060200180831161023c57829003601f168201915b50505050509080600301805461026e90610923565b80601f016020809104026020016040519081016040528092919081815260200182805461029a90610923565b80156102e75780601f106102bc576101008083540402835291602001916102e7565b820191906000526020600020905b8154815290600101906020018083116102ca57829003601f168201915b505050600484015460058501546006860154600787015460089097015495969295919450925060ff80831692610100900416908a565b6000600182815481106103325761033261095d565b60009182526020909120600990910201600781015490915060ff166103955760405162461bcd60e51b8152602060048201526014602482015273141c9bda9958dd081b9bdd08185c1c1c9bdd995960621b60448201526064015b60405180910390fd5b348160050160008282546103a99190610989565b909155505060068101546005820154106103cf5760078101805461ff0019166101001790555b604080518381523460208201527f26130d0cd3f6aa101d05e4a4f2ff016fd5b934363d17bdd03ff5dc03ec5934a9910160405180910390a15050565b600080600360009054906101000a90046001600160a01b03166001600160a01b031663feaf968c6040518163ffffffff1660e01b815260040160a060405180830381865afa158015610461573d6000803e3d6000fd5b505050506040513d601f19601f8201168201806040525081019061048591906109c1565b509195945050505050565b6040805161014081018252600254815233602082019081529181018781526060820187905260808201869052600060a0830181905260c0830185905260e0830181905261010083018190526101208301869052600180548082018255915282517fb10e2d527612073b26eecdfd717e6a320cf44b4afac2b0732d9fcbe2b7fa0cf6600990920291820190815593517fb10e2d527612073b26eecdfd717e6a320cf44b4afac2b0732d9fcbe2b7fa0cf7820180546001600160a01b0319166001600160a01b0390921691909117905590519192917fb10e2d527612073b26eecdfd717e6a320cf44b4afac2b0732d9fcbe2b7fa0cf8909101906105929082610a60565b50606082015160038201906105a79082610a60565b506080820151600482015560a0820151600582015560c0820151600682015560e08201516007820180546101008086015115150261ff00199315159390931661ffff199091161791909117905561012090910151600890910155600254604080519182523360208301527f22eb44677349043faa70ae1c857bc016d223f2d92e34ffde97179347f18c8d5d910160405180910390a16002805490600061064c83610b20565b91905055505050505050565b6000546001600160a01b031633146106bd5760405162461bcd60e51b815260206004820152602260248201527f4f6e6c792061646d696e2063616e20706572666f726d2074686973206163746960448201526137b760f11b606482015260840161038c565b60018082815481106106d1576106d161095d565b600091825260209182902060099190910201600701805460ff1916921515929092179091556040518281527ffc534544f8ed1b516bf078b4ae88509d8f81f4fafefb10e9aad53e3e1fbce9bb910160405180910390a150565b60006020828403121561073c57600080fd5b5035919050565b6000815180845260005b818110156107695760208185018101518683018201520161074d565b506000602082860101526020601f19601f83011685010191505092915050565b8a81526001600160a01b038a166020820152610140604082018190526000906107b48382018c610743565b905082810360608401526107c8818b610743565b6080840199909952505060a081019590955260c085019390935290151560e0840152151561010083015261012090910152949350505050565b634e487b7160e01b600052604160045260246000fd5b600082601f83011261082857600080fd5b813567ffffffffffffffff8082111561084357610843610801565b604051601f8301601f19908116603f0116810190828211818310171561086b5761086b610801565b8160405283815286602085880101111561088457600080fd5b836020870160208301376000602085830101528094505050505092915050565b600080600080600060a086880312156108bc57600080fd5b853567ffffffffffffffff808211156108d457600080fd5b6108e089838a01610817565b965060208801359150808211156108f657600080fd5b5061090388828901610817565b959895975050505060408401359360608101359360809091013592509050565b600181811c9082168061093757607f821691505b60208210810361095757634e487b7160e01b600052602260045260246000fd5b50919050565b634e487b7160e01b600052603260045260246000fd5b634e487b7160e01b600052601160045260246000fd5b8082018082111561099c5761099c610973565b92915050565b805169ffffffffffffffffffff811681146109bc57600080fd5b919050565b600080600080600060a086880312156109d957600080fd5b6109e2866109a2565b9450602086015193506040860151925060608601519150610a05608087016109a2565b90509295509295909350565b601f821115610a5b57600081815260208120601f850160051c81016020861015610a385750805b601f850160051c820191505b81811015610a5757828155600101610a44565b5050505b505050565b815167ffffffffffffffff811115610a7a57610a7a610801565b610a8e81610a888454610923565b84610a11565b602080601f831160018114610ac35760008415610aab5750858301515b600019600386901b1c1916600185901b178555610a57565b600085815260208120601f198616915b82811015610af257888601518255948401946001909101908401610ad3565b5085821015610b105787850151600019600388901b60f8161c191681555b5050505050600190811b01905550565b600060018201610b3257610b32610973565b506001019056fea2646970667358221220eda81e24075aa177fadc5b0cc520005b7d223ab730602a273ad35b973d1149a664736f6c63430008130033",
  "immutableReferences": {},
  "source": "// SPDX-License-Identifier: MIT\npragma solidity ^0.8.19;\n\nimport \"@chainlink/contracts/src/v0.8/interfaces/AggregatorV3Interface.sol\";\n\ncontract ClimateActionProjects {\n    struct Project {\n        uint256 id;\n        address payable owner;\n        string name;\n        string description;\n        uint256 fundingGoal;\n        uint256 currentFunding;\n        uint256 milestoneTarget;\n        bool approved;\n        bool milestoneReached;\n        uint256 CO2ReductionTarget;\n    }\n\n    address public admin;\n    Project[] public projects;\n    uint256 public nextProjectId;\n    AggregatorV3Interface internal CO2DataFeed;\n\n    event ProjectSubmitted(uint256 projectId, address owner);\n    event ProjectFunded(uint256 projectId, uint256 amount);\n    event ProjectApproved(uint256 projectId);\n\n    constructor(address _CO2DataFeedAddress) {\n        admin = msg.sender;\n\n        CO2DataFeed = AggregatorV3Interface(_CO2DataFeedAddress);\n    }\n\n    modifier onlyAdmin() {\n        require(msg.sender == admin, \"Only admin can perform this action\");\n        _;\n    }\n\n    function submitProject(\n        string memory name,\n        string memory description,\n        uint256 fundingGoal,\n        uint256 CO2ReductionTarget,\n        uint256 milestoneTarget\n    ) public {\n        projects.push(\n            Project(\n                nextProjectId,\n                payable(msg.sender),\n                name,\n                description,\n                fundingGoal,\n                0,\n                milestoneTarget,\n                false,\n                false,\n                CO2ReductionTarget\n            )\n        );\n        emit ProjectSubmitted(nextProjectId, msg.sender);\n        nextProjectId++;\n    }\n\n    function approveProject(uint256 projectId) public onlyAdmin {\n        // require(projectId < nextProjectId, \"Invalid project ID\");\n        projects[projectId].approved = true;\n        emit ProjectApproved(projectId);\n    }\n\n    function fundProject(uint256 projectId) public payable {\n        // require(projectId < nextProjectId, \"Invalid project ID\");\n        Project storage project = projects[projectId];\n        require(project.approved, \"Project not approved\");\n        project.currentFunding += msg.value;\n        if (project.currentFunding >= project.milestoneTarget) {\n            project.milestoneReached = true;\n        }\n        emit ProjectFunded(projectId, msg.value);\n    }\n\n    function getProjectsCount() public view returns (uint) {\n        return projects.length;\n    }\n\n    function getCurrentCO2Level() public view returns (int) {\n        (, int CO2Level, , , ) = CO2DataFeed.latestRoundData();\n        return CO2Level;\n    }\n\n    // Add more functions as needed\n}\n",
  "sourcePath": "/home/rahul/Hackathon/fossasia/contracts/ClimateActionProjects.sol",
  "compiler": {
    "name": "solc",
    "version": "0.8.19+commit.7dd6d404.Emscripten.clang"
  },
  "schemaVersion": "3.4.16",
  "updatedAt": "2024-04-06T17:23:58.887Z",
  "networkType": "ethereum",
  "devdoc": {
    "kind": "dev",
    "methods": {},
    "version": 1
  },
  "userdoc": {
    "kind": "user",
    "methods": {},
    "version": 1
  }
}