{
  "contractName": "ProjectManagement",
  "abi": [
    {
      "inputs": [],
      "stateMutability": "nonpayable",
      "type": "constructor"
    },
    {
      "inputs": [],
      "name": "admin",
      "outputs": [
        {
          "internalType": "address",
          "name": "",
          "type": "address"
        }
      ],
      "stateMutability": "view",
      "type": "function"
    },
    {
      "inputs": [],
      "name": "nextProjectId",
      "outputs": [
        {
          "internalType": "uint256",
          "name": "",
          "type": "uint256"
        }
      ],
      "stateMutability": "view",
      "type": "function"
    },
    {
      "inputs": [
        {
          "internalType": "uint256",
          "name": "",
          "type": "uint256"
        }
      ],
      "name": "projects",
      "outputs": [
        {
          "internalType": "uint256",
          "name": "id",
          "type": "uint256"
        },
        {
          "internalType": "address payable",
          "name": "owner",
          "type": "address"
        },
        {
          "internalType": "string",
          "name": "name",
          "type": "string"
        },
        {
          "internalType": "string",
          "name": "description",
          "type": "string"
        },
        {
          "internalType": "uint256",
          "name": "fundingGoal",
          "type": "uint256"
        },
        {
          "internalType": "string",
          "name": "environmentalImpact",
          "type": "string"
        },
        {
          "internalType": "bool",
          "name": "approved",
          "type": "bool"
        },
        {
          "internalType": "uint256",
          "name": "currentFunding",
          "type": "uint256"
        },
        {
          "internalType": "uint256",
          "name": "milestoneTarget",
          "type": "uint256"
        },
        {
          "internalType": "bool",
          "name": "milestoneReached",
          "type": "bool"
        }
      ],
      "stateMutability": "view",
      "type": "function"
    },
    {
      "inputs": [
        {
          "internalType": "string",
          "name": "name",
          "type": "string"
        },
        {
          "internalType": "string",
          "name": "description",
          "type": "string"
        },
        {
          "internalType": "uint256",
          "name": "fundingGoal",
          "type": "uint256"
        },
        {
          "internalType": "string",
          "name": "environmentalImpact",
          "type": "string"
        },
        {
          "internalType": "uint256",
          "name": "milestoneTarget",
          "type": "uint256"
        }
      ],
      "name": "submitProject",
      "outputs": [],
      "stateMutability": "nonpayable",
      "type": "function"
    },
    {
      "inputs": [
        {
          "internalType": "uint256",
          "name": "projectId",
          "type": "uint256"
        }
      ],
      "name": "approveProject",
      "outputs": [],
      "stateMutability": "nonpayable",
      "type": "function"
    },
    {
      "inputs": [
        {
          "internalType": "uint256",
          "name": "projectId",
          "type": "uint256"
        }
      ],
      "name": "contributeToFunding",
      "outputs": [],
      "stateMutability": "payable",
      "type": "function"
    }
  ],
  "bytecode": "0x608060405234801561001057600080fd5b50600080546001600160a01b03191633179055610a54806100326000396000f3fe6080604052600436106100555760003560e01c806307ac80521461005a578063107046bd1461007c578063cc78350b146100bb578063e935b7b1146100ce578063f851a440146100f2578063fc69d8361461012a575b600080fd5b34801561006657600080fd5b5061007a6100753660046106f7565b61014a565b005b34801561008857600080fd5b5061009c610097366004610791565b6102e1565b6040516100b29a999897969594939291906107f0565b60405180910390f35b61007a6100c9366004610791565b6104eb565b3480156100da57600080fd5b506100e460025481565b6040519081526020016100b2565b3480156100fe57600080fd5b50600054610112906001600160a01b031681565b6040516001600160a01b0390911681526020016100b2565b34801561013657600080fd5b5061007a610145366004610791565b6105b8565b604080516101408101825260025481523360208201908152918101878152606082018790526080820186905260a08201859052600060c0830181905260e0830181905261010083018590526101208301819052600180548082018255915282517fb10e2d527612073b26eecdfd717e6a320cf44b4afac2b0732d9fcbe2b7fa0cf6600a90920291820190815593517fb10e2d527612073b26eecdfd717e6a320cf44b4afac2b0732d9fcbe2b7fa0cf7820180546001600160a01b0319166001600160a01b0390921691909117905590519192917fb10e2d527612073b26eecdfd717e6a320cf44b4afac2b0732d9fcbe2b7fa0cf89091019061024c9082610900565b50606082015160038201906102619082610900565b506080820151600482015560a082015160058201906102809082610900565b5060c082015160068201805491151560ff1992831617905560e083015160078301556101008301516008830155610120909201516009909101805491151591909216179055600280549060006102d5836109d6565b91905055505050505050565b600181815481106102f157600080fd5b60009182526020909120600a90910201805460018201546002830180549294506001600160a01b03909116929161032790610877565b80601f016020809104026020016040519081016040528092919081815260200182805461035390610877565b80156103a05780601f10610375576101008083540402835291602001916103a0565b820191906000526020600020905b81548152906001019060200180831161038357829003601f168201915b5050505050908060030180546103b590610877565b80601f01602080910402602001604051908101604052809291908181526020018280546103e190610877565b801561042e5780601f106104035761010080835404028352916020019161042e565b820191906000526020600020905b81548152906001019060200180831161041157829003601f168201915b50505050509080600401549080600501805461044990610877565b80601f016020809104026020016040519081016040528092919081815260200182805461047590610877565b80156104c25780601f10610497576101008083540402835291602001916104c2565b820191906000526020600020905b8154815290600101906020018083116104a557829003601f168201915b505050600684015460078501546008860154600990960154949560ff928316959194509250168a565b600060018281548110610500576105006109ef565b60009182526020909120600a90910201600681015490915060ff1661057c5760405162461bcd60e51b815260206004820152602760248201527f50726f6a656374206d75737420626520617070726f766564206265666f72652060448201526666756e64696e6760c81b60648201526084015b60405180910390fd5b348160070160008282546105909190610a05565b909155505060088101546007820154106105b45760098101805460ff191660011790555b5050565b6000546001600160a01b0316331461061d5760405162461bcd60e51b815260206004820152602260248201527f4f6e6c792061646d696e2063616e20706572666f726d2074686973206163746960448201526137b760f11b6064820152608401610573565b600060018281548110610632576106326109ef565b600091825260209091206006600a9092020101805460ff191660011790555050565b634e487b7160e01b600052604160045260246000fd5b600082601f83011261067b57600080fd5b813567ffffffffffffffff8082111561069657610696610654565b604051601f8301601f19908116603f011681019082821181831017156106be576106be610654565b816040528381528660208588010111156106d757600080fd5b836020870160208301376000602085830101528094505050505092915050565b600080600080600060a0868803121561070f57600080fd5b853567ffffffffffffffff8082111561072757600080fd5b61073389838a0161066a565b9650602088013591508082111561074957600080fd5b61075589838a0161066a565b955060408801359450606088013591508082111561077257600080fd5b5061077f8882890161066a565b95989497509295608001359392505050565b6000602082840312156107a357600080fd5b5035919050565b6000815180845260005b818110156107d0576020818501810151868301820152016107b4565b506000602082860101526020601f19601f83011685010191505092915050565b8a81526001600160a01b038a1660208201526101406040820181905260009061081b8382018c6107aa565b9050828103606084015261082f818b6107aa565b905088608084015282810360a084015261084981896107aa565b96151560c0840152505060e08101939093526101008301919091521515610120909101529695505050505050565b600181811c9082168061088b57607f821691505b6020821081036108ab57634e487b7160e01b600052602260045260246000fd5b50919050565b601f8211156108fb57600081815260208120601f850160051c810160208610156108d85750805b601f850160051c820191505b818110156108f7578281556001016108e4565b5050505b505050565b815167ffffffffffffffff81111561091a5761091a610654565b61092e816109288454610877565b846108b1565b602080601f831160018114610963576000841561094b5750858301515b600019600386901b1c1916600185901b1785556108f7565b600085815260208120601f198616915b8281101561099257888601518255948401946001909101908401610973565b50858210156109b05787850151600019600388901b60f8161c191681555b5050505050600190811b01905550565b634e487b7160e01b600052601160045260246000fd5b6000600182016109e8576109e86109c0565b5060010190565b634e487b7160e01b600052603260045260246000fd5b80820180821115610a1857610a186109c0565b9291505056fea2646970667358221220b5b1b4252fc886bf6ea0b21ba8292bb6d3b5b3d148af01d5f2f9b3e7a0a001e164736f6c63430008130033",
  "immutableReferences": {},
  "source": "// SPDX-License-Identifier: MIT\npragma solidity ^0.8.0;\n\ncontract ProjectManagement {\n    struct Project {\n        uint256 id;\n        address payable owner;\n        string name;\n        string description;\n        uint256 fundingGoal;\n        string environmentalImpact;\n        bool approved;\n        uint256 currentFunding;\n        uint256 milestoneTarget;\n        bool milestoneReached;\n    }\n\n    address public admin;\n    Project[] public projects;\n    uint256 public nextProjectId;\n\n    constructor() {\n        admin = msg.sender;\n    }\n\n    modifier onlyAdmin() {\n        require(msg.sender == admin, \"Only admin can perform this action\");\n        _;\n    }\n\n    function submitProject(\n        string memory name,\n        string memory description,\n        uint256 fundingGoal,\n        string memory environmentalImpact,\n        uint256 milestoneTarget\n    ) public {\n        projects.push(\n            Project(\n                nextProjectId,\n                payable(msg.sender),\n                name,\n                description,\n                fundingGoal,\n                environmentalImpact,\n                false, // Initially, projects are not approved\n                0, // Initial funding is 0\n                milestoneTarget,\n                false // Milestone not reached at the start\n            )\n        );\n        nextProjectId++;\n    }\n\n    function approveProject(uint256 projectId) public onlyAdmin {\n        Project storage project = projects[projectId];\n        project.approved = true;\n    }\n\n    function contributeToFunding(uint256 projectId) public payable {\n        Project storage project = projects[projectId];\n        require(project.approved, \"Project must be approved before funding\");\n        project.currentFunding += msg.value;\n        if (project.currentFunding >= project.milestoneTarget) {\n            project.milestoneReached = true;\n        }\n    }\n\n    // Additional functionality can be added as needed, e.g., for managing milestones\n}\n",
  "sourcePath": "/home/rahul/Hackathon/fossasia/contracts/ProjectManagement.sol",
  "compiler": {
    "name": "solc",
    "version": "0.8.19+commit.7dd6d404.Emscripten.clang"
  },
  "schemaVersion": "3.4.16",
  "updatedAt": "2024-04-05T16:18:10.557Z",
  "devdoc": {
    "kind": "dev",
    "methods": {},
    "version": 1
  },
  "userdoc": {
    "kind": "user",
    "methods": {},
    "version": 1
  }
}